:020000040800F2
:10000000780A002015020008B70D00085D0B0008F3
:10001000B50D000817030008B10F0008000000002C
:10002000000000000000000000000000410E000879
:100030003303000800000000C50D0008430E00084F
:100040002F0200082F0200082F0200082F020008CC
:100050002F0200082F0200082F0200082F020008BC
:100060002F0200082F0200082F0200082F020008AC
:100070002F0200082F0200082F0200082F0200089C
:100080002F0200082F0200082F0200082F0200088C
:100090002F0200082F0200082F0200082F0200087C
:1000A0002F0200082F0200082F0200082F0200086C
:1000B0002F0200082F0200082F0200082F0200085C
:1000C0002F0200082F0200082F0200082F0200084C
:1000D0002F0200082F0200082F0200082F0200083C
:1000E0002F0200082F0200082F0200082F0200082C
:1000F0002F0200082F0200082F0200082F0200081C
:100100002F0200082F0200082F0200082F0200080B
:100110002F0200082F0200082F0200082F020008FB
:100120002F0200082F0200082F0200082F020008EB
:1001300000F002F800F05EF80AA090E8000C82449B
:100140008344AAF10107DA4501D100F053F8AFF278
:10015000090EBAE80F0013F0010F18BFFB1A43F0A5
:1001600001031847F01100001012000010F8013BC5
:100170000A4413F0030408BF10F8014B1D1108BF17
:1001800010F8015B641E05D010F8016B641E01F8C5
:10019000016BF9D1002D15D010F8014B03F00C03C1
:1001A0000C2BA1EB04040ABF10F8013BA4EB831451
:1001B000A4EB032405F1010314F8016B5B1E01F8A5
:1001C000016BF9D5914238BF10F8013BD1D370478C
:1001D0000023002400250026103A28BF78C1FBD850
:1001E000520728BF30C148BF0B6070471FB51FBD05
:1001F00010B510BD00F058F81146FFF7F7FF00F0FA
:10020000E9FE00F076F803B4FFF7F2FF03BC00F05C
:100210007BF800000948804709480047FEE7FEE7F1
:10022000FEE7FEE7FEE7FEE7FEE7FEE7FEE7FEE7A6
:1002300004480549054A064B70470000A50E000812
:100240003101000878040020780A00207806002098
:10025000780600204FF0000200B5134694469646FB
:10026000203922BFA0E80C50A0E80C50B1F12001C9
:10027000BFF4F7AF090728BFA0E80C5048BF0CC077
:100280005DF804EB890028BF40F8042B08BF7047D5
:1002900048BF20F8022B11F0804F18BF00F8012B47
:1002A0007047704770477047754600F029F8AE46B2
:1002B00005006946534620F00700854618B020B572
:1002C000FFF7B6FFBDE820404FF000064FF00007F3
:1002D0004FF000084FF0000B21F00701AC46ACE8EE
:1002E000C009ACE8C009ACE8C009ACE8C0098D465B
:1002F00070470446AFF300802046FFF784FF0000FC
:10030000004870471804002001491820ABBEFEE7E2
:10031000260002007047FEE710B50446102040EAB0
:10032000141000F0D9FC04F00F00BDE8104000F0FC
:10033000D3BC704770B5044600F010F90546601C48
:1003400002D004480078044400F008F9401BA042A1
:10035000FAD370BD080400202DE9F84FDFF8C891EA
:10036000002409F1040A0AF1040B23460F270BF1BC
:10037000040ED1E00125A54006EA0502AA4276D185
:10038000DFF8A8C14E68A6EB0C0866452BD00DDC43
:10039000032E34D005DC36B3012E19D0022E2FD116
:1003A0001BE0112E16D0122E2AD119E0B8F5881FA5
:1003B00019D006DCB8F5803F15D0B8F5801F1FD1E5
:1003C00011E0B8F5001F0ED0B8F5041F18D10AE0EF
:1003D000CB6815E0CB681B1D12E0CB6808330FE03B
:1003E000CB680C330CE08B682BB1012B4FF008036A
:1003F00003D0456104E0042302E0056100E000232E
:10040000FF2A01D8064601E000F104064FEA840500
:1004100001D9A5F12005D6F8008007FA05FC28EAE5
:100420000C0803FA05F548EA0508C6F800804D688F
:10043000ED0070D53E4DAE6946F00106AE61AD6986
:1004400024F0030605F0010500953A4D06EB050C76
:10045000DCF80850A607360F07FA06F825EA080563
:10046000DFF8D480404503D14FF0000825E052E08A
:10047000DFF8C880404502D14FF001081DE0DFF8E9
:10048000C080404502D14FF0020816E0DFF8B4808A
:10049000404502D14FF003080FE0DFF8AC80404543
:1004A00002D14FF0040808E0DFF8A080404502D1F7
:1004B0004FF0050801E04FF0060808FA06F848EA90
:1004C0000508CCF808804D68D9F80060ED034D466A
:1004D00001D5164300E096432E604D68DAF80060BF
:1004E000AD03554601D5164300E096432E604D6896
:1004F000DBF80060ED025D4601D5164300E096434F
:100500002E604D68DEF80060AD02754601D51643D9
:1005100000E096432E60641C0A681646E2407FF4B1
:1005200029AFBDE8F88F0000000401400000111061
:10053000001002400000014000080140000C014092
:10054000001001400014014000180140001C01404F
:100550000AB1016170470904FBE7000001488068A7
:1005600070470000080400200248816802781144A6
:100570008160704708040020074810B5016841F009
:1005800010010160032000F067F80F2000F006F86A
:1005900000F024F8002010BD0020024070B50D4D81
:1005A00004464FF47A712878B1FBF0F00A490968E3
:1005B000B1FBF0F000F0BEFA48B9102C07D20022CF
:1005C0002146501E00F028F800206C6070BD01200C
:1005D00070BD000008040020140400200C4808B579
:1005E000816941F001018161816901F0010100919E
:1005F000C16941F08051C161C06900F08050009034
:100600000448416821F0E06141F00071416008BD9B
:100610000010024000000140F0B40E4B1B680C4675
:10062000C3F30223C3F10705042D00D90425191DC6
:10063000072901D2002300E0DB1E012606FA05F19E
:10064000491E214099409E40761E16403143F0BC21
:1006500000F0AFBC0CED00E0064900F007020868AE
:100660004FF6FF03184040EA0220034A1043086097
:10067000704700000CED00E00000FA052DE9F0479E
:100680000F46050061D0434E306800F00700B842C5
:1006900009D2306820F0070038433060306800F03D
:1006A0000700B84251D128683B4C810712D540075A
:1006B00003D5606840F4E06060602878000703D5E7
:1006C000606840F4605060606068A96820F0F000E5
:1006D000084360602878C00728D06868012810D0D7
:1006E0002168022810D0890700292EDA616821F0DC
:1006F000030101436160FFF731FF804641F2883911
:100700000DE021688903EFE78901EDE7FFF726FF98
:10071000A0EB0801494502D90320BDE8F0876068D5
:10072000696800F00C00B0EB810FEFD1306800F089
:100730000700B8420BD9306820F00700384330601A
:10074000306800F00700B84201D00120E5E72878C2
:10075000400705D56068E96820F4E0600843606000
:100760002878000706D56068296920F4605040EABF
:10077000C100606000F018F86168084AC1F3031115
:10078000515CC8400649086006480068FFF706FF4C
:100790000020C2E700200240001002404113000880
:1007A000140400200C04002012A185B00FC98DE8AC
:1007B0000F0014A0144A006804905168134801F017
:1007C0000C03042B10D0082B0ED1C1F38343C903B3
:1007D0001DF803000AD5516804AAC1F34041515CD9
:1007E0000A4A5043B0FBF1F005B07047084948434E
:1007F000FAE7000002030405060708090A0B0C0DBE
:100800000E0F1010010200000010024000127A00CA
:1008100000093D002DE9F84F040070D02078C04D4C
:10082000C00749D06868C0F38100012807D0686814
:10083000C0F38100022809D16868C00306D5286882
:10084000800339D560680028E7D035E06068B0F5EE
:10085000803F0BD010B1B0F5A02F11D0286820F444
:1008600080302860286820F4802002E0286840F466
:1008700080302860606890B1FFF770FE06460AE09D
:10088000286840F480202860F0E700BFFFF766FE8C
:10089000801B642873D828688003F7D50CE0FFF725
:1008A0005DFE064605E000BFFFF758FE801B64288A
:1008B000F0D828688003F7D420789A4E80074FF04C
:1008C00001094FF0000839D5686810F00C0F07D007
:1008D0006868C0F38100022809D16868C00306D4A3
:1008E0002868800714D52069012808D110E0206904
:1008F000B0B1C6F80090FFF731FE074605E00AE107
:10090000FFF72CFEC01B0228C4D828688007F7D543
:100910002868616920F0F80040EAC10028600DE015
:10092000C6F80080FFF71AFE074604E0FFF716FE40
:10093000C01B022823D828688007F7D42078000736
:100940002CD57948A169D9B1C0F80090FFF706FE0F
:10095000074604E0FFF702FEC01B02280FD8686AB2
:100960008007F7D571484FF4FA510068B0FBF1F0F9
:10097000009000BF0098411E0091FAD20EE080E086
:10098000C0F80080FFF7EAFD074604E0FFF7E6FD48
:10099000C01B022875D8686A8007F7D42078400702
:1009A00060D5E8690027C00008D4E86940F08050AD
:1009B000E861E869012700F0805000905C48016818
:1009C000C90513D40168834641F480710160FFF7C3
:1009D000C5FD824606E000BFFFF7C0FDA0EB0A00A0
:1009E00064284ED8DBF80000C005F5D5E068012882
:1009F0000AD008B1052813D0286A20F00100286227
:100A0000286A20F0040002E0286A40F00100286211
:100A1000E06841F2883B98B1FFF7A0FD82460BE009
:100A2000286A40F004002862EEE700BFFFF796FD59
:100A3000A0EB0A0159455AD8286A8007F6D50CE080
:100A4000FFF78CFD824605E0FFF788FDA0EB0A0169
:100A500059454CD8286A8007F6D41FB1E86920F0C0
:100A60008050E861E06988B36968C1F381010229B7
:100A700044D00228C6F8608004D0FFF76FFD04461A
:100A800038E034E0FFF76AFD074604E0FFF766FD53
:100A9000C01B02282BD828688001F7D4206AB0F543
:100AA000803F05D16868A16820F400300843686081
:100AB000D4E908010843696821F4741108436860A7
:100AC000C6F86090FFF74AFD044606E025E000BF47
:100AD000FFF744FD001B022809D828688001F7D5DC
:100AE0001BE000BFFFF73AFD001B022802D90320DC
:100AF000BDE8F88F28688001F4D40EE00128F7D013
:100B00006868226A00F48031914204D1616A00F47D
:100B10007010884201D00120EAE70020E8E70000D9
:100B200000100240000042428004424214040020AF
:100B30000070004010B5401EB0F1807F01D301204D
:100B400010BD4FF0E02460610F21601700F031FA12
:100B50000020A06107202061002010BDFEE70000FA
:100B60002DE9F05F0A2190FBF1F290FBF1F70025EF
:100B700001FB1206DFF8E4A005202C4681460AF1AD
:100B8000480B00BF00F018F93C20FFF7C5FB4FF001
:100B900000080A2F0ED2DFE807F00D05081F2225F6
:100BA000272A2D301AF8050001E01BF805006D1CFE
:100BB00000F0AEF808F1010000F0FF08B8F1180FDE
:100BC000E7D34FF000080A2E22D2DFE806F0191C06
:100BD000303336393B3E4144204890300EE01F48C8
:100BE000D8300BE01E4809E01D48483006E01C489C
:100BF000903003E01A48D83000E01A48405DD6E74C
:100C00001648483828E01AF80400641C00F080F800
:100C100008F1010000F0FF08B8F1180FD3D309F173
:100C20000100C0B281460828ACD3BDE8F09F1BF894
:100C30000400EAE7094890300EE0094848380BE024
:100C4000074809E00648483006E00548903003E0D0
:100C50000448483800E00348005DD6E7B9100008B2
:100C6000D9110008F912000870B50024204600F0E0
:100C7000A3F80020FFF750FB0025002000F048F803
:100C80006D1CEDB2802DF8D3641CE4B2082CEDD3BA
:100C900070BD70B50024204600F08EF80020FFF7EC
:100CA0003BFB0025FF2000F033F86D1CEDB2802DDA
:100CB000F8D3641CE4B2082CEDD370BD70B5054DBB
:100CC0000024285D00F008F8641CE4B20D2CF8D371
:100CD00070BD00006410000870B50C4C0646002280
:100CE0004FF400712046FFF733FCA514002229467B
:100CF0002046FFF72DFC304600F07CF829462046C0
:100D0000BDE870400122FFF723BC0000000C014049
:100D100070B50B4C0646012251022046FFF718FC25
:100D2000A514002229462046FFF712FC304600F0A9
:100D300061F829462046BDE870400122FFF708BC53
:100D4000000C014070B586B000241848009401944E
:100D500002940394816941F008018161816901F085
:100D600008010491816941F0040181618069104E9C
:100D700000F0040047F26035049000222946304616
:100D8000FFF7E6FB0320CDE9024000950125694607
:100D900001953046FFF7E0FA80208DE83100694682
:100DA0003046FFF7D9FA06B070BD000000100240CF
:100DB000000C0140FEE7FEE700F00700B030C0B2D3
:100DC000FFF78ABF704770B5064600242046FFF73C
:100DD000F3FF0020FFF7A0FA002516F8010BFFF73C
:100DE00097FF6D1CEDB2802DF7D3641CE4B2082C84
:100DF000ECD370BD70B5114E0546002400222021B1
:100E00003046FFF7A5FB280601D4002200E00122AE
:100E100040213046FFF79CFB6806050E0122202189
:100E20003046FFF795FB641CE4B2082CE6D330464D
:100E3000BDE8704000222021FFF78ABB000C014072
:100E40007047FFF791BB30B58FB028216846FFF798
:100E500001FA14210AA8FFF7FDF901210804CDE9E0
:100E600000100024029402250491CDE907504FF4AC
:100E7000E01009906846FFF7CDFC08B172B6FEE7B6
:100E80000F20CDE90A054FF48060CDE90C40022126
:100E90000AA80E94FFF7F2FB002801D072B6FEE715
:100EA0000FB030BD704700002DE9F05F00250A212A
:100EB00090FBF1F290FBF1F701FB1206DFF8E4A0E2
:100EC00028462C4681460AF1480B00BFFFF774FF05
:100ED0003C20FFF721FA4FF000080A2F0ED2DFE87E
:100EE00007F00D05081F2225272A2D301AF80500C6
:100EF00001E01BF805006D1CFFF70AFF08F1010077
:100F000000F0FF08B8F1180FE7D34FF000080A2EE1
:100F100022D2DFE806F0191C303336393B3E41441B
:100F2000204890300EE01F48D8300BE01E4809E002
:100F30001D48483006E01C48903003E01A48D8307D
:100F400000E01A48405DD6E71648483828E01AF80D
:100F50000400641CFFF7DCFE08F1010000F0FF084C
:100F6000B8F1180FD3D309F10100C0B281460328AC
:100F7000ACD3BDE8F09F1BF80400EAE709489030C5
:100F80000EE0094848380BE0074809E006484830B9
:100F900006E00548903003E00448483800E0034884
:100FA000005DD6E7B9100008D9110008F912000851
:100FB000FEE70907090E002804DB00F1E02080F8B5
:100FC0000014704700F00F0000F1E02080F8141DBD
:100FD00070470000FFF7D0FAFFF735FFFFF7B2FECA
:100FE0001D4C1C481D4E2060002220213046FFF77A
:100FF000AFFAB715002239463046FFF7A9FA17496C
:10100000B801103108604FF47A752846FFF792F95D
:10101000012239463046FFF79BFA2846FFF78AF946
:10102000FFF74CFEFFF735FE6810FFF783F9FFF777
:101030001BFE2068FFF7C7FE094C2068411C216099
:10104000FFF732FF2068FFF78BFD2846FFF772F9A4
:10105000F3E700000000002000040020000C014025
:1010600004040020E22C2E2F248122A2A0C8A64036
:10107000AF0000C0E0E06060E0E0C0000000000001
:1010800000000000000000000078FFFFFF000000EB
:1010900000FFFFFF00000000000000000000000053
:1010A0000000030F1F1C18181C1F0F030000000076
:1010B0000000000000000000000000C0C0C0E0E030
:1010C000E000000000000000000000000000000040
:1010D000000000000000FFFFFF0000000000000013
:1010E00000000000000000000000001010181F1F8A
:1010F0001F101000000000000000000000000000B1
:10110000000080C0E060206060E0C080000000005F
:101110000000000000000000000003070780C0E09E
:10112000783F1F07000000000000000000000000E2
:1011300000101C1E1F1B191818181E1E000000008E
:101140000000000000000000000080C0E06020609F
:10115000E0E0C0000000000000000000000000000F
:1011600000000103031010383FFFE7C30000000038
:10117000000000000000000000000E1F1F181018E3
:10118000181F0F0700000000000000000000000012
:1011900000000000000080C0E0E00000000000004F
:1011A000000000000000000000C0E0F0BC8E87FFDF
:1011B000FFFF8080800000000000000000000000B1
:1011C000000000000010101F1F1F1810100000006A
:1011D0000000000000000000000000E0E06060602F
:1011E000606060600000000000000000000000007F
:1011F0000000183F3F18080818F8F0E00000000051
:10120000000000000000000000000F1F1F18101851
:10121000181F0F0700000000000000000000000081
:1012200000000080C0E06020E0E0E0C000000000BE
:10123000000000000000000000F8FFFFFF18180881
:1012400018F9F9F0000000000000000000000000A4
:101250000000070F1F1C1810181F0F0700000000C8
:1012600000000000000000000000E0E0606060603E
:1012700060E0E060000000000000000000000000EE
:101280000000010100C0F0FC3F0701000000000069
:101290000000000000000000000000000C1F1F1FE5
:1012A000000000000000000000000000000000003E
:1012B000000080E0E060202060E0C08000000000CE
:1012C00000000000000000000000C7EF7F3C383045
:1012D00078FFEFC7000000000000000000000000E1
:1012E00000030F1F1C181010181F0F07000000002C
:1012F0000000000000000000000080E0E0602060CE
:1013000060E0C0800000000000000000000000005D
:10131000000E3F7F7960406070FFFFFF000000001B
:10132000000000000000000000000C1E1E1C101831
:101330001E0F070100000000000000000000000078
:10134000000000000000000000010203040607087E
:1013500009000000741300080000002018040000B9
:101360006C010008641400081804002060060000E6
:10137000D0010008300D0080800C1C3CD8E0F8FC47
:10138000F848014005FCFCFC000100164FF8F8F09D
:10139000101010F0F2D61E1C18F0F0D050989818CB
:1013A0001000013016010787E6FC3FF3EFEF2FE452
:1013B000E42424E4E42FEFFFE020802014FFFF3F2B
:1013C000014141DFDF5F4949495FDFFFE141010141
:1013D0009712700101497F100B013B7F7F27603F0F
:1013E0003F3F20032104110B001B4F3030004070A1
:1013F0003F4F434040602030311F1E1C1E3F3331A1
:10140000707060602080027D8001027D0101680AA9
:101410008080840C3C3890C0488008066848F8FCFE
:10142000FC0880180C808183C7F7FE3FE3C89F0F3C
:10143000FA1204040806678FCFFF7060802B00014A
:101440007B48066020232727840807673F23213035
:101450003020807D0803115A755E00040024F400DA
:041460000000000088
:0400000508000131BD
:00000001FF
